:10000000A4C00000BDC00000BBC00000B9C000001B
:10001000B7C00000B5C00000B3C00000B1C0000010
:10002000AFC00000ADC00000DFC20000A1C30000EF
:10003000A7C00000A5C00000A3C00000A1C0000030
:100040009FC000009DC000009BC0000099C0000040
:1000500097C0000095C0000093C0000091C0000050
:100060008FC000006DC100008BC0000089C000007F
:1000700087C0000085C0000083C0000081C0000070
:100080007FC000007DC000007BC0000079C0000080
:1000900077C0000075C0000073C0000071C0000090
:1000A0006FC000006DC000006BC0000030034C004A
:1000B00055004600410020005500530042002D002D
:1000C000520053003200330032002000410064002F
:1000D00061007000740065007200000018034400A5
:1000E000650061006E002000430061006D00650046
:1000F0007200610000000403090409023E000201CD
:1001000000C03209040000010202010005240010B1
:1001100001042402060524060001070582030800E5
:10012000FF09040100020A00000007050402100094
:1001300001070583021000011201100102000008EE
:10014000EB034B2001000102DC0111241FBECFEFA5
:10015000DAE0DEBFCDBF11E0A0E0B1E0EAEFFFE002
:1001600002C005900D92AA31B107D9F712E0AAE1B9
:10017000B1E001C01D92AE33B107E1F755D03BC7E6
:100180003FCF9EB19F7B982B9EB90895FC01A08123
:10019000B1816C93808191810196918380832681C6
:1001A00037818217930721F484819581918380831D
:1001B0002FB7F894828593850196938782872FBF06
:1001C0000895FC01A281B3818D91B383A28326811E
:1001D0003781A217B30721F4248135813383228329
:1001E0009FB7F8942285338521503040338722878A
:1001F0009FBF089584B7877F84BF88E10FB6F894C6
:1002000080936000109260000FBE90E080E80FB60F
:10021000F89480936100909361000FBE6E9A769877
:10022000CBD184E085BD0895E5DFEAE1F1E02FB7A9
:10023000F89486E291E0918380839383828395830F
:10024000848386EA91E09783868380E890E09187B3
:100250008087138612862FBFE6EAF1E04FB7F89445
:1002600022EB31E03183208333832283358324835F
:1002700022E332E0378326839187808713861286B4
:100280004FBF80E47EDF78948FB7F89420912401EB
:10029000309125018FBF8091220190912301281771
:1002A000390749F080E091E046D6BC0197FD03C0D4
:1002B0008AE191E06BDF8FB7F894C091B001D091E3
:1002C000B1018FBFA89903C0C136D10590F0A89A9B
:1002D0000EC0E091A801F091A90180E091E0608159
:1002E000C3D52197882329F486EA91E06ADF209715
:1002F00081F72FB7F89480912401909125012FBFA9
:10030000009749F08AE191E05CDF9091C80095FF89
:10031000FCCF8093CE0080E091E0FED59BD4B4CF9B
:1003200080E02FCF80E42DCF80E091E04CD5882372
:1003300011F080E001C080E424CF80E091E09CC413
:100340001F920F920FB60F9211242F933F934F934A
:100350005F936F937F938F939F93AF93BF93EF932D
:10036000FF936091CE008EB3843019F486EA91E059
:100370000DDFFF91EF91BF91AF919F918F917F9191
:100380006F915F914F913F912F910F900FBE0F9002
:100390001F901895CF93FC01A689A150A23028F494
:1003A000B0E0A85EBE4FCC9101C0C0E0858982302C
:1003B00009F4C8608789873031F0883031F08630A1
:1003C00029F4C26003C0C46001C0C6601092C900B5
:1003D0001092C8001092CA00218932894389548939
:1003E000DA01C901B695A7959795879580589B47DF
:1003F000A14EBF4FBC01CD01DCD521503040309320
:10040000CD002093CC00C093CA0082E08093C80046
:1004100088E98093C900CF910895923029F09330F4
:1004200041F09130E9F417C08EE390E0EAEFF0E09C
:100430001BC0813041F0813018F0823089F406C051
:10044000E6EFF0E005C0ECEDF0E002C0ECEAF0E031
:10045000849190E009C082E190E0E8E3F1E004C01B
:1004600080E090E0E0E0F0E0DA011196FC93EE939A
:1004700008958093E900EBEEF0E080818160808355
:10048000EDEEF0E010826093EC0040838091EE008E
:10049000881F8827881F08958091360287FF11C022
:1004A00003C08EB38823B1F08091E80082FFF9CFBA
:1004B0008091E8008B778093E80008958EB38823BD
:1004C00049F08091E80080FFF9CF8091E8008E77B5
:1004D0008093E80008958091E4009091E50045E65E
:1004E00001C0C9012091EC0020FF22C02091E8004A
:1004F00020FD14C02EB3222399F0253099F02091CD
:10050000EB0025FD11C02091E4003091E500281793
:10051000390741F3415029F784E0089580E00895B8
:1005200082E0089583E0089581E0089580E00895D1
:100530002091E80022FFDECFF9CF0F931F93CF93D6
:10054000DF9345D04CD0C8EDD0E088818F77888389
:1005500088818068888388818F7D888319BC1EBAD2
:1005600010923202109234021092330200EE10E028
:10057000F80180818B7F808388818160888380E01F
:1005800060E042E076DFE1EEF0E080818E7F808304
:10059000E2EEF0E0808181608083808188608083EA
:1005A000F80180818E7F8083888180618883DF91DC
:1005B000CF911F910F910895E7EDF0E08081816068
:1005C000808384E082BF81E080933502B6CFE8ED7E
:1005D000F0E080818E7F80831092E2000895109277
:1005E000DA001092E10008951F920F920FB60F9259
:1005F00011242F933F934F935F936F937F938F9328
:100600009F93AF93BF93EF93FF938091E10082FF9D
:100610000AC08091E20082FF06C08091E1008B7FDA
:100620008093E10016D38091DA0080FF1BC0809197
:10063000D80080FF17C08091DA008E7F8093DA00A7
:100640008091D90080FF0BC080E189BD82E189BD26
:1006500009B400FEFDCF81E08EBB62DE03C019BC91
:100660001EBA60DE8091E10080FF17C08091E20039
:1006700080FF13C08091E2008E7F8093E200809122
:10068000E20080618093E2008091D80080628093D4
:10069000D80019BC85E08EBBDCD28091E10084FFDC
:1006A0002CC08091E20084FF28C080E189BD82E1F6
:1006B00089BD09B400FEFDCF8091D8008F7D809365
:1006C000D8008091E1008F7E8093E1008091E2006C
:1006D0008F7E8093E2008091E20081608093E2004F
:1006E00080913202882321F48091E30087FF02C0C9
:1006F00084E001C081E08EBBACD28091E10083FF39
:1007000026C08091E20083FF22C08091E100877FB4
:100710008093E10082E08EBB109232028091E10072
:100720008E7F8093E1008091E2008E7F8093E200D3
:100730008091E20080618093E20080E060E042E02E
:1007400098DE8091F00088608093F00082D2FF9163
:10075000EF91BF91AF919F918F917F916F915F9139
:100760004F913F912F910F900FBE0F901F901895B2
:100770001F920F920FB60F921124EF92FF920F93D8
:100780001F932F933F934F935F936F937F938F9319
:100790009F93AF93BF93EF93FF93CF93DF930F920A
:1007A000CDB7DEB789EEE82EF12CF70180818F708E
:1007B000108200EF10E0F8019081977F9083789489
:1007C0008983E1D0F7011082F801908198609083CD
:1007D0008981F70180830F90DF91CF91FF91EF9195
:1007E000BF91AF919F918F917F916F915F914F9149
:1007F0003F912F911F910F91FF90EF900F900FBE9F
:100800000F901F90189540913C0250913D02461761
:10081000570720F4BA01FC0140E03BC061157105A7
:10082000D1F74091E8004E774093E800F4CF8EB3C3
:10083000882309F443C08530E9F18091E80083FD05
:100840003BC08091E80082FD2FC08091E80080FFCE
:1008500020C09091F3008091F200392F20E090E0C9
:10086000822B932B06C041914093F1006150704060
:1008700001966115710519F088309105A0F341E0EA
:100880008830910509F040E08091E8008E778093F0
:10089000E8006115710559F6442349F605C08EB389
:1008A000882361F0853061F08091E80082FFF7CF06
:1008B00080E0089583E0089581E0089582E008953E
:1008C00083E0089540913C0250913D02461757073E
:1008D00020F4BA01FC0140E03DC061157105D1F77B
:1008E0004091E8004E774093E800F4CF8EB3882320
:1008F00009F445C0853009F43EC08091E80083FDCD
:100900003CC08091E80082FD30C08091E80080FF0B
:1009100021C09091F3008091F200392F20E090E007
:10092000822B932B07C044914093F1003196615084
:10093000704001966115710519F08830910598F3A2
:1009400041E08830910509F040E08091E8008E7721
:100950008093E8006115710549F6442339F605C016
:100960008EB3882361F0853061F08091E80082FFCA
:10097000F7CF80E0089583E0089581E0089582E054
:10098000089583E008950F931F93CF93DF93CDB71E
:10099000DEB7AC970FB6F894DEBF0FBECDBF88E0D0
:1009A000E6E3F2E09091F10091938150D9F7C5DC34
:1009B0008091E80083FF34C1809136022091370294
:1009C000253009F484C0263040F42130A1F12130D3
:1009D00070F0233009F024C12EC0283009F4F3C090
:1009E000293009F402C1263009F01AC193C08038B9
:1009F00021F0823809F014C108C08091330290912F
:100A00003402992371F082600CC080913A028F7099
:100A10008093E9009091EB0081E095FF80E01092D7
:100A2000E9009091E800977F9093E8008093F100AF
:100A30001092F100D3C0882319F0823009F0F0C081
:100A400090E08F719070009729F08230910509F045
:100A5000E7C00BC080913802813009F0E1C023303B
:100A600009F080E0809334022CC080913802882302
:100A700041F520913A022F7009F4D2C02093E90089
:100A80008091EB0080FF1DC080913702833021F4FC
:100A90008091EB00806213C08091EB0080618093B5
:100AA000EB0081E090E002C0880F991F2A95E2F7E1
:100AB0008093EA001092EA008091EB0088608093B6
:100AC000EB001092E9008091E800877F8AC08823BC
:100AD00009F0A6C0109138021F770FB7F8948091E3
:100AE000E800877F8093E800D7DC8091E80080FFF2
:100AF000FCCF8091E3008078812B8093E3008068B5
:100B00008093E300112311F083E001C082E08EBBEB
:100B10000FBF86C08058823008F082C080913802B2
:100B20009091390223E08C3D9207A9F583E08C83F4
:100B30008AE28B835FB7F894DE01139680E090E041
:100B40004EE061E2E42FF0E060935700E49180FF13
:100B500003C0E295EF704F5FEF702E2F30E0EA3068
:100B600018F0295C3F4F02C0205D3F4F13963C9325
:100B70002E931297019612968431910519F75FBF53
:100B80008091E800877F8093E800CE0103966AE2B7
:100B900070E039DE12C060913A02AE014F5F5F4FE4
:100BA0003CDCBC01009709F43BC08091E800877FE2
:100BB0008093E80089819A8185DE8091E8008B77B7
:100BC0008093E8002DC0803859F58091E800877F38
:100BD0008093E800809132028093F1008091E800D8
:100BE0008E778093E80058DC1BC08823C9F490916D
:100BF00038029230A8F48091E800877F8093E80063
:100C00009093320249DC80913202882321F4809152
:100C1000E30087FF02C084E001C081E08EBB84DB7B
:100C20008091E80083FF0AC08091EB00806280938E
:100C3000EB008091E800877F8093E800AC960FB6C8
:100C4000F894DEBF0FBECDBFDF91CF911F910F9102
:100C500008950895CF938EB3882361F0C091E90081
:100C6000CF701092E9008091E80083FF01C08BDE15
:100C7000C093E900CF910895CF93DF93EC01809169
:100C8000E80083FF9DC0888190E020913A02309176
:100C90003B022817390709F093C08091370281324F
:100CA00069F0823220F4803209F08AC03CC082327E
:100CB00009F465C0833209F083C074C080913602A4
:100CC000813A09F07DC08091E800877F8093E80039
:100CD0008091E80080FFFCCF89899A89AB89BC8923
:100CE0008093F100492F5A2F6B2F77274093F10003
:100CF000AD01662777274093F1008B2F9927AA270C
:100D0000BB278093F1008D898093F1008E898093B9
:100D1000F1008F898093F1008091E8008E778093B5
:100D2000E800BADB4DC080913602813209F048C03C
:100D30008091E800877F8093E8008091E80082FF3F
:100D4000FCCF3091F1002091F1009091F100809161
:100D5000F100398B2A8B9B8B8C8B8091F1008D8BD2
:100D60008091F1008E8B8091F1008F8B8091E80053
:100D70008B778093E80090DBCE010CDB21C0809163
:100D800036028132E9F48091E800877F8093E800A1
:100D900083DB80913802909139029E878D87CE0146
:100DA00007D10EC080913602813251F48091E80063
:100DB000877F8093E80070DBCE0160913802F8D025
:100DC000DF91CF9108951F93CF93DF93EC010D96A0
:100DD000FC018BE0DF011D928A95E9F711E0898122
:100DE000181729F48A819B813C8150E807C08D81C6
:100DF000181731F48E819F81388550E022E008C0B9
:100E00008985181739F58A859B853C8550E823E04C
:100E1000332311F044E001C040E030E0E6E0220F6F
:100E2000331FEA95E1F761E0552309F460E0622B96
:100E300028E030E050E003C05F5F220F331F281727
:100E40003907D0F342605295507F452B812F11DB3B
:100E5000882329F01F5F173011F681E001C080E080
:100E6000DF91CF911F910895CF93FC01C62F8EB3D0
:100E70008430E1F4418952896389748941155105AF
:100E80006105710599F081818093E9008091E80006
:100E900085FD08C08091E8008E778093E8001BDB19
:100EA000882329F4C093F10080E001C082E0CF9153
:100EB0000895FC018EB3843049F5418952896389D4
:100EC0007489411551056105710501F18181809396
:100ED000E9009091F3008091F200392F20E090E03A
:100EE000822B932B0097A1F09091E8008091E8006D
:100EF0008E778093E80095FD0DC0EDDA882359F4D4
:100F00009091E8009E779093E800089582E008951C
:100F100080E0089580E008952EB3243059F4FC0158
:100F200041895289638974894115510561057105AB
:100F300009F0BFCF0895FC018EB3843099F5418943
:100F4000528963897489411551056105710551F113
:100F500085818093E9008091E80082FF26C090910E
:100F6000F3008091F200392F20E090E0822B932B48
:100F7000009721F08091F10090E002C08FEF9FEF89
:100F80003091F3002091F200532F40E030E0242B09
:100F9000352B2115310559F42091E8002B7720934A
:100FA000E80008958FEF9FEF08958FEF9FEF08956A
:100FB0000895A1E21A2EAA1BBB1BFD010DC0AA1F9A
:100FC000BB1FEE1FFF1FA217B307E407F50720F0B2
:100FD000A21BB30BE40BF50B661F771F881F991F2D
:100FE0001A9469F760957095809590959B01AC0176
:0A0FF000BD01CF010895F894FFCF72
:100FFA0000031000000410000002080000000000B6
:0A100A00000000000000000030208C
:00000001FF
